:1000000004C100002FC100002DC100002BC1000061
:1000100029C1000027C1000025C1000023C1000044
:1000200021C100001FC100001DC100001BC1000054
:1000300019C1000017C1000015C1000013C1000064
:1000400011C100000C949B080DC100000BC1000001
:1000500009C1000007C1000005C100000C94C808D8
:1000600001C100000C94BF0A0C94030CFBC00000FB
:10007000F9C00000F7C00000F5C00000F3C00000A8
:100080000C946E08EFC00000EDC00000EBC0000053
:100090000C94FF0A0C94420CE5C00000E3C0000081
:1000A000E1C00000DFC00000ECC70000DBC00000C2
:1000B000D9C00000D7C00000D5C00000B5C70000FF
:1000C000D1C00000CFC00000CDC000000C943F0B99
:1000D0000C94810CC7C000000C947F0B0C94C00CD6
:1000E000C1C0000000002100240027002A002D00CC
:1000F0003000330001010000040107010A01000083
:100100002200250028002B002E00310034000201BF
:100110000000050108010B0100002000230026005B
:1001200029002C002F00320000010000030106010D
:10013000090105050505070508080808020202026D
:100140000A0A080804040404010101010101010173
:100150000303030303030303040707070C0C0C0C3E
:100160000C0C0C0C02020202060606060606060627
:100170000B0B0B0B0B0B0B0B0102102020080810B4
:100180002040102040800201020108040201010207
:1001900004081020408080402010080402018004E0
:1001A000020180402010080402010804020101023B
:1001B0000408102040800102040810204080000044
:1001C000090A02080B0C0D070603040100000000D9
:1001D000000000000000000000000000000000001F
:1001E0000000000000000000000011100F000000DF
:1001F00000000000000000000000000000000000FF
:10020000000000003F03300E3A0311241FBECFEF61
:10021000D1E2DEBFCDBF00E00CBF13E0A0E0B2E052
:10022000EEE5FBE200E00BBF02C007900D92A636A0
:10023000B107D9F71BBE17E0A6E6B3E001C01D92D7
:10024000AE38B107E1F712E0C8E0D2E004C022976F
:10025000FE010E949F15C430D107C9F70E94660FA6
:100260000C94A315CDCEFB01DC0102C001900D92D0
:1002700041505040D8F70895FB01DC018D91019069
:1002800080190110D9F3990B0895FB01DC0101904D
:100290000D920020E1F708958130910509F0C8C161
:1002A0006F5F7F4F09F0E5C186E693E0E3D589E60D
:1002B00093E0E0D58CE693E0DDD58FE693E0DAD5E8
:1002C0008CEA93E060E072E00E94DB1283EB93E043
:1002D00060E072E00E94DB128AEB93E060E072E083
:1002E0000E94DB1280910307909104079093C4034E
:1002F0008093C3038091050790910607A09107079B
:10030000B09108078093C5039093C603A093C703D9
:10031000B093C8038091090790910A07A0910B0739
:10032000B0910C078093C9039093CA03A093CB03A9
:10033000B093CC032AE533E03093C2032093C1038A
:1003400080910D0790910E079093CE038093CD037B
:1003500080910F07909110079093D0038093CF0363
:1003600080911107909112079093D2038093D1034B
:1003700080911307909114079093D4038093D30333
:1003800080911507909116079093D6038093D5031B
:1003900080911707909118079093D8038093D70303
:1003A0008091190790911A079093DA038093D903EB
:1003B00080911B0790911C079093DC038093DB03D3
:1003C00080911D078093DD0380911E078093DE03DB
:1003D00080911F078093DF03809120078093E003C3
:1003E000809121078093E103809122078093E203AB
:1003F00080912507909126079093E6038093E5036B
:100400008091270790912807A0912907B0912A078A
:100410008093E7039093E803A093E903B093EA0382
:1004200080912B0790912C07A0912D07B0912E075A
:100430008093EB039093EC03A093ED03B093EE0352
:100440003093E4032093E30380912F0790913007CA
:100450009093F0038093EF038091310790913207DE
:100460009093F2038093F1038091330790913407C6
:100470009093F4038093F3038091350790913607AE
:100480009093F6038093F503809137079091380796
:100490009093F8038093F7038091390790913A077E
:1004A0009093FA038093F90380913B0790913C0766
:1004B0009093FC038093FB0380913D0790913E074E
:1004C0009093FE038093FD0380913F078093FF0389
:1004D000809140078093000480914107809301043C
:1004E0008091420780930204809143078093030424
:1004F00080914407809304048091470790914807B6
:1005000090930804809307048091490790914A07CB
:10051000A0914B07B0914C078093090490930A0473
:10052000A0930B04B0930C0480914D0790914E075B
:10053000A0914F07B091500780930D0490930E0443
:10054000A0930F04B0931004309306042093050485
:100550008091510790915207909312048093110457
:10056000809153079091540790931404809313043F
:100570008091550790915607909316048093150427
:10058000809157079091580790931804809317040F
:100590008091590790915A0790931A0480931904F7
:1005A00080915B0790915C0790931C0480931B04DF
:1005B00080915D0790915E0790931E0480931D04C7
:1005C00080915F07909160079093200480931F04AF
:1005D00080916107809321048091620780932204B7
:1005E000809163078093230480916407809324049F
:1005F0008091650780932504809166078093260487
:1006000087E294E061E072E00E94DB128EE294E007
:1006100069E072E00E94DB1285E394E06AE172E037
:100620000E94DB128CE394E06CE172E00C94DB122C
:10063000892BF9F46F5F7F4FE1F48CE394E00E9423
:10064000421385E394E00E9442138EE294E00E94FC
:10065000421387E294E00E9442138AEB93E00E94E7
:10066000421383EB93E00E9442138CEA93E00C94D4
:100670004213089580E090E06FEF7FEF0DCE81E0B0
:1006800090E06FEF7FEF08CE0F931F9303EE13E020
:10069000C8016EE172E00E948C10C80162E272E053
:1006A0000E948C10C80168E272E00E948C101F91B9
:1006B0000F9108950F931F9300E012E08CEA93E0EE
:1006C000B8010E940D1383EB93E0B8010E940D1353
:1006D00010927303109272031092750310927403B8
:1006E0001092770310927603109279031092780398
:1006F0001F910F910895EF92FF920F931F93DF9335
:10070000CF93CDB7DEB727970FB6F894DEBF0FBEF5
:10071000CDBF7C01FC0184819581892BC9F08E01BC
:100720000F5F1F4FC8016CE272E00E94F412C80113
:10073000B7010E94A812BC0181EC93E00E94CF1087
:10074000C8010E94461383EE93E0B7010E94CF10C8
:1007500027960FB6F894DEBF0FBECDBFCF91DF91C5
:100760001F910F91FF90EF900895EF92FF920F93DA
:100770001F93DF93CF93CDB7DEB727970FB6F894CB
:10078000DEBF0FBECDBF7C01FC0184819581892B2A
:10079000C9F08E010F5F1F4FC80162E372E00E9433
:1007A000F412C801B7010E94A812BC0181EC93E0C9
:1007B0000E94CF10C8010E94461385E094E0B70163
:1007C0000E94CF1027960FB6F894DEBF0FBECDBFA4
:1007D000CF91DF911F910F91FF90EF90089581309D
:1007E0009105A9F082309105E9F0892B29F008954F
:1007F00081EC93E00E94B70D81EC93E00E94860D9E
:10080000892BB1F7089583EE93E00E94B70D83EE34
:1008100093E00E94860D892BB1F7089585E094E05E
:100820000E94B70D85E094E00E94860D892BB1F7F8
:100830000895CF92DF92EF92FF920F931F93DF9371
:10084000CF93CDB7DEB727970FB6F894DEBF0FBEB4
:10085000CDBFD82EC92E8B017E010894E11CF11C5E
:10086000C70160E072E00E94DB128D2D9C2D60E0DC
:1008700072E00E94DB120230110591F409C085E09C
:1008800094E00E94B70D682FC8010E94641201C055
:10089000870185E094E00E94860D892B81F728C0AE
:1008A0000130110591F409C083EE93E00E94B70D69
:1008B000682FC8010E94641201C0870183EE93E093
:1008C0000E94860D892B81F713C0012B51F021C0A6
:1008D00081EC93E00E94B70D682FC8010E9464125A
:1008E00001C0870181EC93E00E94860D892B81F77E
:1008F0008D819E81892B69F08D2D9C2D8E010F5F3E
:100900001F4FB8010E942413C80160E072E00E94EA
:100910000D13CE0101960E9442138D2D9C2D27961A
:100920000FB6F894DEBF0FBECDBFCF91DF911F9100
:100930000F91FF90EF90DF90CF900895FF920F936B
:100940001F93DF93CF93CDB7DEB7AA970FB6F89476
:10095000DEBF0FBECDBF64D4ADDE83EE93E00E9458
:10096000860D892B79F08E010F5F1F4FC80161E062
:1009700070E05FDF8CEA93E0B8010E947712C80153
:100980000E94421385E094E00E94860D892B79F045
:100990008E01085F1F4FC80162E070E04ADF83EB01
:1009A00093E0B8010E947712C8010E94421381ECC3
:1009B00093E00E94860D892B79F08E01015F1F4F15
:1009C000C80160E070E035DF8AEB93E0B8010E9477
:1009D0007712C8010E9442138091B0039091B10335
:1009E000892B91F083EE93E00E94860D892B61F4B0
:1009F00081EC93E069E472E00E948C1081EC93E05A
:100A00006CEA73E00E94CF108091B7039091B80315
:100A1000892B91F085E094E00E94860D892B61F48A
:100A200081EC93E065E572E00E948C1081EC93E02C
:100A300063EB73E00E94CF108091BE039091BF03DF
:100A4000892B09F441C081EC93E00E94860D892B2B
:100A5000D9F58E010A5E1F4FC80162E672E00E945E
:100A6000DB128AEB93E0B8010E94E211F82EC80174
:100A70000E944213FF2041F18AEB93E060E070E0B6
:100A80000E94BC11FC018081833259F48E01035E07
:100A90001F4FC8016AEB73E00E943913C8012BDEB7
:100AA0000AC08E010C5D1F4FC8016AEB73E00E9403
:100AB0003913C8015ADEC8010E9442138AEB93E041
:100AC00060E072E00E940D13AA960FB6F894DEBFA4
:100AD0000FBECDBFCF91DF911F910F91FF90089571
:100AE000CF93DF9364E170E080E090E0A7D385E0EE
:100AF00094E068E672E00E94B9118823D1F485E0A1
:100B000094E06BE672E00E94B911882391F481ECC5
:100B100093E061E772E00E948C10C1E0D0E082E0D7
:100B200090E05DDE80E090E05ADECE01DF91CF9173
:100B30000895C0E0D0E0F3CF6F927F928F929F92A2
:100B4000AF92BF92CF92DF92EF92FF920F931F93DB
:100B5000DF93CF93CDB7DEB7C654D0400FB6F8942D
:100B6000DEBF0FBECDBF81EC93E067E772E00E946D
:100B70008C108E010F5F1F4FC80162E872E00E9467
:100B8000DB12C801F2DDC8010E944213A9DF3C015B
:100B90008E01085F1F4FC80165E872E00E94DB12FA
:100BA000C801E3DDC8010E9442139ADF6C018E0187
:100BB000015F1F4FC80161E972E00E94DB12C801AA
:100BC000D4DDC8010E9442138BDF4C018E010A5E06
:100BD0001F4FC80163EA72E00E94DB12C801C5DD45
:100BE000C8010E9442137CDF5C018E01035E1F4F2F
:100BF000C8016FEA72E00E94DB12C801B6DDC801CD
:100C00000E94421382E090E0EADD8E01055D1F4FF5
:100C1000C8016BEB72E00E94F412C80167E274E055
:100C20000E94A81266EC72E00E948E126EE274E0DE
:100C30000E94A8126AEC72E00E948E1265E374E0D2
:100C40000E94A8126DEC72E00E948E126CE374E0B8
:100C50000E94A812BC0184E2E82EF12CEC0EFD1ECD
:100C6000C7010E943913C8010E9446138E010E5C11
:100C70001F4FC801B7010E943913C80176DDC801B2
:100C80000E9442132DDF7C0168EE73E080E090E06B
:100C9000D5D28E01075C1F4FC8016FEC72E00E9435
:100CA000DB12C80162DDC8010E9442136AE070E0F5
:100CB00080E090E0C3D210927A0385E094E069ED81
:100CC00072E00E94B911882371F085E094E062E23D
:100CD0004AE753E024E130E00E940B11E82FF0E0F6
:100CE000E658FC4F10828E01005C1F4FC8016EEE6B
:100CF00072E00E94DB12C80138DDC8010E94421375
:100D000068EE73E080E090E099D21092980385E05D
:100D100094E067EF72E00E94B911882371F085E0DA
:100D200094E06DE048E953E024E130E00E940B11CB
:100D3000E82FF0E0E856FC4F108281EC93E063E08E
:100D400073E00E948C1081EC93E06EE173E00E94EE
:100D50008A10C60CD71CC80CD91CCA0CDB1CCE0CC4
:100D6000DF1C81EC93E0B6014AE050E00E9478106D
:100D700081EC93E06EE273E00E948C1081EC93E0D2
:100D800066E373E00E948A1081EC93E06AE773E007
:100D90000E948C1081EC93E061E473E00E948A1061
:100DA00081EC93E068E973E00E948C10CE01849698
:100DB0000E944213CA5BDF4F0FB6F894DEBF0FBE2E
:100DC000CDBFCF91DF911F910F91FF90EF90DF90FA
:100DD000CF90BF90AF909F908F907F906F9008952D
:100DE000EF92FF920F931F93DF93CF93CDB7DEB7B0
:100DF00027970FB6F894DEBF0FBECDBF91ECE92E5A
:100E000093E0F92EC70140E855E260E070E0F7D5C5
:100E100083EE93E040E051EE60E070E0F0D585E0D5
:100E200094E040E855E260E070E0E9D58FE061E0F1
:100E3000C0D282DE29DC8E010F5F1F4FC80162E83D
:100E400072E00E94DB12C80190DCC8010E944213CC
:100E5000C70166E473E00E948C1027960FB6F894E1
:100E6000DEBF0FBECDBFCF91DF911F910F91FF90DD
:100E7000EF900895FC0180914304803390F48083C7
:100E80008F5F80934304815090E0FC01EE0FFF1FC1
:100E9000E80FF91FEC5BFB4F88EB9BE092838183AB
:100EA00008958FEF80830895EF92FF920F931F9321
:100EB000CF93DF938B017A01EC01DC01AC52BB4F85
:100EC0008C9187FF04C0FB011182108236C0AE01F5
:100ED000440F551F4C0F5D1F440F551F440F551FE6
:100EE0002C91332727FD3095240F351F8091430423
:100EF00090E0281739070CF58C91992787FD90957C
:100F0000840F951FFC01EE0FFF1FE80FF91FEC5B2C
:100F1000FB4F808186FF11C08C91992787FD9095AA
:100F2000840F951FFC01EE0FFF1FE80FF91FEC5B0C
:100F3000FB4F80818F7360E0EFD2DE01AC52BB4F7C
:100F40008C918F5F8C93AE01440F551F4C0F5D1F2A
:100F5000440F551F440F551F2C91332727FD309503
:100F6000240F351F8091430490E0281739070CF0B7
:100F70004CC08C918C300CF048C0F801208131813C
:100F80008C91992787FD9095840F951FFC01EE0F9A
:100F9000FF1FE80FF91FEC5BFB4F81819281280F47
:100FA000391FF701318320838C91992787FD909514
:100FB000840F951FFC01EE0FFF1FE80FF91FEC5B7C
:100FC000FB4F808186FF29C08C91992787FD9095E2
:100FD000840F951FFC01EE0FFF1FE80FF91FEC5B5C
:100FE000FB4F80818F7361E097D217C080E49CE94A
:100FF00004C0F801808191810496F7019183808378
:10100000CC52DB4F8FEF888308C0F801808191813B
:10101000049680549C4950F3ECCFDF91CF911F91FF
:101020000F91FF90EF9008951F920F920FB60F92BD
:101030000BB60F9211242F933F934F935F936F93AF
:101040007F938F939F93AF93BF93EF93FF9380E032
:1010500090E064E271E048E251E026DFFF91EF9119
:10106000BF91AF919F918F917F916F915F914F91C0
:101070003F912F910F900BBE0F900FBE0F901F90BE
:1010800018951F920F920FB60F920BB60F92112464
:101090002F933F934F935F936F937F938F939F9380
:1010A000AF93BF93EF93FF9383E090E064EA70E027
:1010B00048EA50E0F9DEFF91EF91BF91AF919F9127
:1010C0008F917F916F915F914F913F912F910F90F1
:1010D0000BBE0F900FBE0F901F9018951F920F928E
:1010E0000FB60F920BB60F9211242F933F934F938D
:1010F0005F936F937F938F939F93AF93BF93EF9380
:10110000FF9382E090E064E970E048E950E0CCDED3
:10111000FF91EF91BF91AF919F918F917F916F91CF
:101120005F914F913F912F910F900BBE0F900FBE8B
:101130000F901F9018951F920F920FB60F920BB63B
:101140000F9211242F933F934F935F936F937F934D
:101150008F939F93AF93BF93EF93FF9381E090E0C2
:1011600064E870E048E850E09FDEFF91EF91BF91A6
:10117000AF919F918F917F916F915F914F913F912F
:101180002F910F900BBE0F900FBE0F901F901895D0
:101190001F920F920FB60F9211242F933F938F93AC
:1011A0009F93AF93BF938091DC049091DD04A09155
:1011B000DE04B091DF043091E0040196A11DB11D61
:1011C000232F2D5F2D3720F02D570196A11DB11D26
:1011D0002093E0048093DC049093DD04A093DE046C
:1011E000B093DF048091D8049091D904A091DA04DF
:1011F000B091DB040196A11DB11D8093D80490939A
:10120000D904A093DA04B093DB04BF91AF919F910E
:101210008F913F912F910F900FBE0F901F901895B7
:101220008FB7F8942091DC043091DD044091DE0406
:101230005091DF048FBFB901CA0108959B01AC0131
:101240007FB7F8948091D8049091D904A091DA04E2
:10125000B091DB0466B5A89B05C06F3F19F00196FD
:10126000A11DB11D7FBFBA2FA92F982F8827860FE8
:10127000911DA11DB11D62E0880F991FAA1FBB1F00
:101280006A95D1F7BC012DC0FFB7F8948091D804BE
:101290009091D904A091DA04B091DB04E6B5A89B43
:1012A00005C0EF3F19F00196A11DB11DFFBFBA2F78
:1012B000A92F982F88278E0F911DA11DB11DE2E047
:1012C000880F991FAA1FBB1FEA95D1F7861B970BA2
:1012D000885E9340C8F221503040404050406851F1
:1012E0007C4F211531054105510571F6089578941B
:1012F00084B5826084BD84B5816084BD85B582601B
:1013000085BD85B5816085BDEEE6F0E080818160B8
:101310008083E1E8F0E010828081826080838081B8
:1013200081608083E0E8F0E0808181608083E1EB90
:10133000F0E0808184608083E0EBF0E08081816078
:101340008083E1E9F0E08081826080838081816038
:101350008083E0E9F0E0808181608083E1EAF0E071
:10136000808182608083808181608083E0EAF0E018
:10137000808181608083E1E2F1E08081826080830E
:10138000808181608083E0E2F1E080818160808300
:10139000EAE7F0E0808184608083808182608083DE
:1013A0008081816080838081806880831092C10009
:1013B0000895CF93DF93482F50E0CA0188589E4F7D
:1013C000FC0134914E5C5E4FFA018491882369F1EF
:1013D00090E0880F991FFC01EC51FF4FA591B4914B
:1013E000FC01E250FF4FC591D491662351F42FB711
:1013F000F8948C91932F909589238C9388818923DD
:101400000BC0623061F42FB7F8948C91932F9095B4
:1014100089238C938881832B88832FBF06C09FB735
:10142000F8948C91832B8C939FBFDF91CF9108957B
:10143000893009F449C08A30A0F4843051F18530F4
:1014400040F4823079F1833000F5813009F063C0D7
:1014500026C0873079F1883098F5863009F05BC076
:1014600025C08D3009F442C08E3028F48B30B1F1A4
:101470008C30C0F52DC0803109F442C0813109F4AF
:1014800045C08F3009F047C037C0809180008F770A
:1014900003C0809180008F7D80938000089584B583
:1014A0008F7702C084B58F7D84BD08958091B00090
:1014B0008F7703C08091B0008F7D8093B000089536
:1014C000809190008F7707C0809190008F7D03C03E
:1014D00080919000877F8093900008958091A00074
:1014E0008F7707C08091A0008F7D03C08091A000FE
:1014F000877F8093A0000895809120018F7703C09B
:10150000809120018F7D809320010895809120019A
:10151000877F809320010895FF920F931F93F62EEB
:10152000482F50E0CA0182549E4FFC012491CA0109
:1015300088589E4FFC0114914E5C5E4FFA01049155
:101540000023C1F0222311F0822F72DFE02FF0E0A0
:10155000EE0FFF1FE250FF4FA591B4919FB7F89493
:10156000FF2021F48C911095812302C08C91812B56
:101570008C939FBF1F910F91FF90089508951F9224
:101580000F920FB60F920BB60F9211242F933F9329
:101590004F938F939F93EF93FF938091C00082FDB1
:1015A0001DC04091C60020912105309122052F5F7A
:1015B0003F4F2F7330708091230590912405281799
:1015C000390771F0E0912105F0912205EF51FB4FB1
:1015D0004083309322052093210502C08091C600EC
:1015E000FF91EF919F918F914F913F912F910F908C
:1015F0000BBE0F900FBE0F901F90189508951F926D
:101600000F920FB60F920BB60F9211242F933F93A8
:101610004F938F939F93EF93FF938091C80082FD28
:101620001DC04091CE002091A9053091AA052F5FE1
:101630003F4F2F7330708091AB059091AC05281708
:10164000390771F0E091A905F091AA05E759FA4F21
:1016500040833093AA052093A90502C08091CE0053
:10166000FF91EF919F918F914F913F912F910F900B
:101670000BBE0F900FBE0F901F90189508951F92EC
:101680000F920FB60F920BB60F9211242F933F9328
:101690004F938F939F93EF93FF938091D00082FDA0
:1016A0001DC04091D60020913106309132062F5F47
:1016B0003F4F2F7330708091330690913406281776
:1016C000390771F0E0913106F0913206EF50FA4F90
:1016D0004083309332062093310602C08091D600B9
:1016E000FF91EF919F918F914F913F912F910F908B
:1016F0000BBE0F900FBE0F901F90189508951F926C
:101700000F920FB60F920BB60F9211242F933F93A7
:101710004F938F939F93EF93FF938091300182FDBE
:101720001DC0409136012091B9063091BA062F5F55
:101730003F4F2F7330708091BB069091BC062817E5
:10174000390771F0E091B906F091BA06E758F94F00
:1017500040833093BA062093B90602C080913601C7
:10176000FF91EF919F918F914F913F912F910F900A
:101770000BBE0F900FBE0F901F901895E0910D07B4
:10178000F0910E07E05CFF4F8191919120813181B2
:10179000821B930B8F739070892B09F0EFDEE09121
:1017A0002F07F0913007E05CFF4F819191912081EC
:1017B0003181821B930B8F739070892B09F01EDF90
:1017C000E0915107F0915207E05CFF4F81919191B8
:1017D00020813181821B930B8F739070892B09F0CC
:1017E0004DDFE0917307F0917407E05CFF4F81914A
:1017F000919120813181821B930B8F739070892B83
:1018000009F07CCF08951F920F920FB60F920BB67E
:101810000F9211242F933F938F939F93EF93FF93F6
:101820002091650530916605809167059091680566
:101830002817390731F48091C1008F7D8093C10052
:1018400014C0E0916705F0916805EB5DFA4F2081C7
:10185000809167059091680501968F7390709093C1
:101860006805809367052093C600FF91EF919F91D3
:101870008F913F912F910F900BBE0F900FBE0F9045
:101880001F9018951F920F920FB60F920BB60F92E2
:1018900011242F933F938F939F93EF93FF93209166
:1018A000ED053091EE058091EF059091F005281738
:1018B000390731F48091C9008F7D8093C90014C02D
:1018C000E091EF05F091F005E355FA4F208180910A
:1018D000EF059091F00501968F7390709093F0054D
:1018E0008093EF052093CE00FF91EF919F918F9110
:1018F0003F912F910F900BBE0F900FBE0F901F9036
:1019000018951F920F920FB60F920BB60F921124DB
:101910002F933F938F939F93EF93FF93209175069F
:1019200030917606809177069091780628173907CE
:1019300031F48091D1008F7D8093D10014C0E0916B
:101940007706F0917806EB5CF94F2081809177065D
:101950009091780601968F7390709093780680939B
:1019600077062093D600FF91EF919F918F913F9141
:101970002F910F900BBE0F900FBE0F901F901895D8
:101980001F920F920FB60F920BB60F9211242F9346
:101990003F938F939F93EF93FF932091FD06309198
:1019A000FE068091FF06909100072817390731F451
:1019B000809131018F7D8093310114C0E091FF0649
:1019C000F0910007E354F94F20818091FF06909138
:1019D000000701968F739070909300078093FF0625
:1019E00020933601FF91EF919F918F913F912F911D
:1019F0000F900BBE0F900FBE0F901F901895AF92D7
:101A0000BF92DF92EF92FF920F931F93CF93DF93DA
:101A1000EC017A018B01DD24403081EE580780E033
:101A2000680780E0780711F0DD24D39491E0A92EB7
:101A3000B12CEC89FD89DD2069F0C50108A002C048
:101A4000880F991F0A94E2F7808360E079E08DE3C4
:101A500090E005C0108260E874E88EE190E0A80193
:101A600097010E947B1521503040404050405695D0
:101A700047953795279580E12030380720F0DD2005
:101A800011F0DD24D6CFE889F9893083EA89FB8912
:101A9000208319A2EE89FF89408121E030E0C9014D
:101AA0000C8C02C0880F991F0A94E2F7482B4083E0
:101AB000EE89FF894081C9010D8C02C0880F991FF2
:101AC0000A94E2F7482B4083EE89FF894081C901DF
:101AD0000E8C02C0880F991F0A94E2F7482B4083AE
:101AE000EE89FF8980810F8C02C0220F331F0A9478
:101AF000E2F7209528232083DF91CF911F910F914A
:101B0000FF90EF90DF90BF90AF900895DC011C969E
:101B1000ED91FC911D97E05CFF4F21913191808107
:101B20009181281B390B2F733070C9010895DC0196
:101B30001C96ED91FC911D97E05CFF4F2081318157
:101B4000E054F040DF01AE5BBF4F8D919C91119747
:101B50002817390719F42FEF3FEF07C08D919C919B
:101B6000E80FF91F8081282F30E0C9010895DC01BA
:101B70001C96ED91FC911D97E05CFF4F2081318117
:101B8000E054F040DF01AE5BBF4F8D919C91119707
:101B90002817390719F42FEF3FEF10C08D919C9152
:101BA0001197E80FF91F20818D919C911197019653
:101BB0008F73907011969C938E9330E0C9010895B5
:101BC000DC0191968C919197882339F05496ED9190
:101BD000FC915597808186FFF9CF91961C920895CC
:101BE000CF93DF93EC01EE85FF85E05CFF4F208112
:101BF0003181E054F0402F5F3F4F2F733070DF0191
:101C0000AE5BBF4F8D919C91119728173907D1F387
:101C1000E05CFF4F80819181E054F040E80FF91FB4
:101C20006083EE85FF85E05CFF4F31832083EE8982
:101C3000FF89208181E090E00F8C02C0880F991FFE
:101C40000A94E2F7282B208381E089A3EC89FD899F
:101C500080818064808381E090E0DF91CF9108955E
:101C60001F93109204071092030728EE33E040E020
:101C700050E02093050730930607409307075093E1
:101C800008076AE573E0709302076093010781EE2D
:101C900094E090930E0780930D0785E295E0909372
:101CA000100780930F0785EC90E0909312078093C4
:101CB000110784EC90E0909314078093130780EC55
:101CC00090E0909316078093150781EC90E0909335
:101CD00018078093170782EC90E090931A0780937F
:101CE000190786EC90E090931C0780931B0714E083
:101CF00010931D07B3E0B0931E07A7E0A0931F0742
:101D0000F5E0F0932007E1E0E09321071092260729
:101D1000109225072093270730932807409329071F
:101D200050932A07709324076093230789E695E070
:101D30009093300780932F078DEA95E090933207B8
:101D4000809331078DEC90E09093340780933307B4
:101D50008CEC90E0909336078093350788EC90E008
:101D6000909338078093370789EC90E090933A0777
:101D7000809339078AEC90E090933C0780933B076F
:101D80008EEC90E090933E0780933D0710933F07C1
:101D9000B0934007A0934107F0934207E0934307B5
:101DA00010924807109247072093490730934A073B
:101DB00040934B0750934C07709346076093450739
:101DC00081EF95E0909352078093510785E396E069
:101DD000909354078093530785ED90E090935607B6
:101DE0008093550784ED90E09093580780935707B0
:101DF00080ED90E090935A078093590781ED90E031
:101E000090935C0780935B0782ED90E090935E0770
:101E100080935D0786ED90E09093600780935F0765
:101E200010936107B0936207A0936307F093640770
:101E3000E093650710926A071092690720936B0779
:101E400030936C0740936D0750936E07709368074B
:101E50006093670789E796E0909374078093730710
:101E60008DEB96E0909376078093750785E391E07C
:101E7000909378078093770784E391E090937A07B3
:101E80008093790780E391E090937C0780937B07B0
:101E900081E391E090937E0780937D0782E391E058
:101EA0009093800780937F0786E391E09093820769
:101EB0008093810710938307B0938407A0938507CD
:101EC000F0938607E09387071F910895CF93DF93E0
:101ED0000EDA0E94F006CEEBDBE00E949E04209713
:101EE000E1F34CDCFACFCF92DF92EF92FF920F93A7
:101EF0001F93CF93DF937C016B018A01C0E0D0E098
:101F00000FC0D6016D916D01D701ED91FC9101904B
:101F1000F081E02DC7011995C80FD91F015010405D
:101F20000115110571F7CE01DF91CF911F910F912E
:101F3000FF90EF90DF90CF900895EF92FF920F9374
:101F40001F938C01DC01ED91FC910190F081E02D5B
:101F50006DE019957C01D801ED91FC910190F08123
:101F6000E02DC8016AE019959C012E0D3F1DC901A5
:101F70001F910F91FF90EF900895CF93DF93EC01A5
:101F80006115710519F420E030E00FC0DB010D9000
:101F90000020E9F71197A61BB70BE881F9810280B1
:101FA000F381E02DAD0119959C01C901DF91CF911D
:101FB00008954F925F927F928F929F92AF92BF92BD
:101FC000CF92DF92EF92FF920F931F93DF93CF9305
:101FD000CDB7DEB7A1970FB6F894DEBF0FBECDBF69
:101FE0002C01742ECB01223008F42AE019A231E230
:101FF000C32ED12CCC0EDD1E822E9924AA24BB2404
:10200000672D752FA501940176D579018A01C80144
:10201000B701A501940150D5472D461B0894C1086E
:10202000D1084A3014F4405D01C0495CF601408398
:10203000E114F1040105110521F07E2C5F2DC8018A
:10204000DFCFC201B60199DFA1960FB6F894DEBFCB
:102050000FBECDBFCF91DF911F910F91FF90EF90F9
:10206000DF90CF90BF90AF909F908F907F905F90C8
:102070004F900895CF92DF92EF92FF920F931F93AC
:10208000CF93DF93EC016A017B012115310541F407
:10209000E881F9810190F081E02D642F19951DC030
:1020A0002A303105C9F477FF16C0E881F981019023
:1020B000F081E02D6DE219958C0144275527BA0176
:1020C0004C195D096E097F09CE012AE072DF980183
:1020D000280F391F03C02AE06CDF9C01C901DF9182
:1020E000CF911F910F91FF90EF90DF90CF900895C7
:1020F000EF92FF920F931F937B019A010027F7FC49
:102100000095102FB801A701B5DF1F910F91FF9027
:10211000EF90089532CF0895EF92FF920F931F939F
:102120007C012BDF8C01C70108DF080F191FC801D4
:102130001F910F91FF90EF900895AF92BF92CF92B1
:10214000DF92EF92FF920F931F93CF93DF935C0187
:102150006B01EE24FF24C0E0D0E00FC0D501ED916B
:10216000FC9100811181C601BE011BD1682FC50100
:10217000F8011995E80EF91E2196F60184819581E2
:10218000C817D90758F3C701DF91CF911F910F915D
:10219000FF90EF90DF90CF90BF90AF900895EF92B7
:1021A000FF920F931F937C01C8DF8C01C701C5DE2E
:1021B0009C01200F311FC9011F910F91FF90EF90DB
:1021C0000895CF93DF93EC012BD8688779878A87AE
:1021D0009B87E881F9810680F781E02DCE01199572
:1021E0009C0197FF14C01CD8288539854A855B85DA
:1021F000621B730B840B950B2C813D814E815F819B
:10220000621773078407950720F32FEF3FEFC9018B
:10221000DF91CF910895AF92BF92CF92DF92EF926C
:10222000FF920F931F93CF93DF935C017A01890193
:102230002115310519F4C0E0D0E015C0C0E0D0E0B0
:10224000C62EDD24C7FCD0940BC0C501BADF97FDB4
:102250000AC08C159D0539F0F70181937F01219605
:10226000C017D10790F3CE01DF91CF911F910F914D
:10227000FF90EF90DF90CF90BF90AF9008956F9256
:102280007F928F929F92AF92BF92CF92DF92EF9206
:10229000FF920F931F93CF93DF933C017B014A0181
:1022A00059016801FB0180818823C9F1C0E0D0E0B9
:1022B0002DC0F701EC0FFD1F8081992787FD9095B8
:1022C0002817390711F0C0E0D0E0F701EC0FFD1F2F
:1022D0008081992787FD90952817390721F4219649
:1022E000C815D905E0F4C114D10481F0F501E00F5F
:1022F000F11F8081992787FD90952817390731F4C0
:102300000F5F1F4F0C151D0518F00BC000E010E00B
:10231000C30157DF9C01181619065CF202C081E068
:1023200001C080E0DF91CF911F910F91FF90EF905E
:10233000DF90CF90BF90AF909F908F907F906F90E5
:1023400008950F931F939A01DB010D900020E9F788
:10235000AD0141505040461B570BD9010D90002054
:10236000E9F71197A21BB30B8D0189DF1F910F9124
:10237000089540E050E0E5CFFC019B018481958108
:102380006817790728F4608171816115710529F456
:102390001092890769E877E002C0620F731FCB01D2
:1023A0000895FC01848195816817790748F40190AC
:1023B000F081E02D309721F0E60FF71F808108951E
:1023C00080E00895FC01DB012481358114964D9154
:1023D0005C91159724173507A8F0808191810097AB
:1023E00089F06D917C916115710561F0241B350BAD
:1023F000820F931F0E943C019C0180E0232B19F463
:1024000081E0089580E008950F931F93CF93DF93A9
:10241000EC018B016F5F7F4F8881998170D20097AB
:1024200011F480E005C0998388831B830A8381E0CF
:10243000DF91CF911F910F910895CF93DF93EC011E
:1024400088819981892B29F08A819B81861797073A
:1024500058F4CE01D9DF882341F08C819D81892BEE
:1024600019F4E881F981108281E0DF91CF9108951C
:10247000EF92FF920F931F93CF93DF93EC017B01B9
:102480006C817D81E114F104B9F04115510591F0A1
:102490008A01060F171FB801D0DF882369F08881F1
:1024A00099812C813D81820F931FB7010E944501C4
:1024B0001D830C8381E001C080E0DF91CF911F91EB
:1024C0000F91FF90EF900895DF93CF930F920F92AB
:1024D000CDB7DEB769831A82BE016F5F7F4F41E0DF
:1024E00050E0C6DF0F900F90CF91DF910895FB0170
:1024F0006081718144815581BBCFCF93DF93EC0123
:1025000088819981009709F062D1198218821D8211
:102510001C821B821A82DF91CF9108950F931F9323
:10252000182F092F6115710559F0DB010D9000205E
:10253000E9F71197A61BB70BAD019ADF882319F4B1
:10254000812F902FDADF812F902F1F910F91089507
:102550000F931F93182F092FFB0160817181448114
:10256000558186DF882319F4812F902FC6DF812FB4
:10257000902F1F910F910895EF92FF920F931F9349
:10258000CF93DF93EC017B018A01BA0156DF8823E8
:1025900019F4CE01B2DF07C01D830C8388819981B5
:1025A000B7010E944501CE01DF91CF911F910F919C
:1025B000FF90EF900895CF93DF93EC01198218827A
:1025C0001B821A821D821C821E826115710549F0D0
:1025D000DB010D900020E9F71197A61BB70BAD01A9
:1025E000CBDFDF91CF910895CF93DF93EC01198278
:1025F00018821B821A821D821C821E82611571053F
:1026000049F0DB010D900020E9F71197A61BB70BED
:10261000AD01B2DFDF91CF9108950F931F93182F73
:10262000092F6115710551F0DB010D900020E9F7CC
:102630001197A61BB70BAD019FDF01C05EDF812F95
:10264000902F1F910F910895CF93DF93EC01FB0121
:102650008617970751F0608171816115710521F02E
:102660004481558189DF01C048DFCE01DF91CF91E0
:102670000895FC0111821082138212821582148245
:102680001682E2CFFC0180819181A1C0FC01808192
:1026900091819DC00F931F93CF93DF93BC01823034
:1026A000910510F462E070E0E0918C07F0918D07E5
:1026B00040E050E0A0E0B0E024C080819181861726
:1026C0009707D0F08617970771F48281938110974E
:1026D00029F013969C938E9312972CC090938D079C
:1026E00080938C0727C04115510519F08417950771
:1026F00018F48D01AC01EF01DF01828193819C010F
:10270000F9013097D1F641155105F9F0CA01861B40
:10271000970B8430910580F48A819B810115110506
:1027200021F0F8019383828304C090938D078093F6
:102730008C07FE01329645C0FE01E80FF91F619338
:1027400071930297998388833CC080918A07909106
:102750008B07892B41F480915203909153039093FE
:102760008B0780938A07409154035091550341157C
:10277000510541F44DB75EB78091500390915103DC
:10278000481B590B20918A0730918B072417350776
:10279000B0F4CA01821B930B8617970780F0AB0138
:1027A0004E5F5F4F8417950750F0420F531F5093B1
:1027B0008B0740938A07F9016193719302C0E0E0AF
:1027C000F0E0CF01DF91CF911F910F910895CF934A
:1027D000DF939C01009709F48FC0EC0122971B82C4
:1027E0001A8260918C0770918D076115710581F4D3
:1027F00088819981820F931F20918A0730918B07DE
:102800002817390739F5D0938B07C0938A0774C00E
:10281000DB0140E050E0AC17BD0708F1BB83AA83A1
:10282000FE0121913191E20FF31FAE17BF0779F43A
:102830008D919C911197280F391F2E5F3F4F39833F
:10284000288312968D919C9113979B838A834115BF
:10285000510571F4D0938D07C0938C074DC012962B
:102860008D919C911397AD01009711F0DC01D3CFAE
:10287000DA011396DC93CE931297FA0121913191EC
:10288000E20FF31FCE17DF0769F488819981280FC3
:10289000391F2E5F3F4FFA01318320838A819B814C
:1028A00093838283E0E0F0E0DB0112968D919C91AE
:1028B0001397009719F0BC01FD01F6CFAB014E5FF5
:1028C0005F4FDB018D919C91840F951F20918A07AA
:1028D00030918B072817390779F4309729F4109233
:1028E0008D0710928C0702C0138212824250504012
:1028F00050938B0740938A07DF91CF9108956F9291
:102900007F928F929F92AF92BF92CF92DF92EF927F
:10291000FF920F931F93CF93DF938C01009721F4C5
:10292000CB01B8DE8C01B8C08EEFE82E8FEFF82E09
:10293000E00EF11E4801860E971E8E149F0408F4C7
:10294000A9C0D7014D915C91119746175707B0F078
:102950004530510508F4A0C0CA01049786179707AF
:1029600008F49AC042505040461B570BF401419363
:1029700051936D937C93CF012ADF8EC05B01A41A23
:10298000B50A3801640E751EA0918C07B0918D07B1
:10299000E0E0F0E0CC24DD2447C0A615B705A9F59A
:1029A000CD91DC911197CE0102968A159B0568F1B5
:1029B000CE018A199B09029612962C9112971396B2
:1029C0003C91059758F0F40122833383CA19DB093F
:1029D000D183C083D7016D937C9309C04E5F5F4F55
:1029E0004C0F5D1FF70151834083C901FC01C114E5
:1029F000D10431F0D6011396FC93EE9312974CC09C
:102A0000F0938D07E0938C0747C08D919C911197AF
:102A1000E817F90708F4FC016D0112968C911297E2
:102A200013969C919C01D901109709F0B6CF809123
:102A30008A0790918B0786159705E9F4E617F70743
:102A4000D0F420915403309155032115310541F400
:102A50002DB73EB78091500390915103281B390B3D
:102A600082169306B8F490928B0780928A07F7013A
:102A70007183608311C0CB010DDEEC01009751F032
:102A8000D7014D915C91B8010E943301C8019FDECE
:102A90008E0102C000E010E0C801DF91CF911F91CC
:102AA0000F91FF90EF90DF90CF90BF90AF909F90ED
:102AB0008F907F906F900895629FD001739FF00177
:102AC000829FE00DF11D649FE00DF11D929FF00DBE
:102AD000839FF00D749FF00D659FF00D9927729FF5
:102AE000B00DE11DF91F639FB00DE11DF91FBD0180
:102AF000CF0111240895A1E21A2EAA1BBB1BFD01D0
:102B00000DC0AA1FBB1FEE1FFF1FA217B307E407CC
:102B1000F50720F0A21BB30BE40BF50B661F771F24
:102B2000881F991F1A9469F7609570958095909504
:102B30009B01AC01BD01CF010895EE0FFF1F059071
:102B4000F491E02D199412E0C8E0D2E003C0FE0138
:0E2B5000F6DF2296CA30D107D1F7F894FFCFF6
:102B5E00004553503832363600764A246526354FB6
:102B6E003B2F25404C455846730031003300236FF0
:102B7E003000236F73637400236F31000A646F6635
:102B8E003A000A776966693A000D0041542B4349B1
:102B9E005053454E443D0020002D2D2D2D444F46C3
:102BAE002D2D2D2D002D2D2D2D574946492D2D2DF9
:102BBE002D000D0A002C3D004F4B007265616479AB
:102BCE00004572726F720073746172742077696659
:102BDE00690041540041542B4349504D55583D31E5
:102BEE000041542B4349505345525645523D312CCA
:102BFE0038300041542B43495053544F3D3000411F
:102C0E00542B43574D4F44453D320041542B4357AF
:102C1E005341503D2200222C2200222C002C004138
:102C2E00542B43575341503F0041542B435753416C
:102C3E00503F0D0D0A2B43575341503A2200415439
:102C4E002B43494653520041542B43494653520D90
:102C5E000D0A002D2D2D2D2D2D2D2D2D2D2D2D2D06
:102C6E002D2D2D2D2D2D2D2D2D2D2D2D2D0057496D
:102C7E00464920646F6E6520776974682000204590
:102C8E0072726F7273004E65747A7765726B3A204A
:102C9E000049503A2000496E697420444F4E450059
:102CAE0080008E07000000000000F00D730F860DEF
:062CBE00B70D970DE00DBB
:00000001FF
